:020000040800F2
:1000000010040020D50000089701000895010008A1
:1000100000000000000000000000000000000000E0
:10002000000000000000000000000000DD010008EA
:1000300000000000000000009901000819020008FB
:100040000501000805010008050100080501000878
:100050000501000805010008050100080501000868
:100060000000000005010008050100080501000866
:100070000501000805010008000000000501000856
:100080000000000000000000000000000000000070
:100090000501000800000000000000000501000844
:1000A0000000000005010008000000000000000042
:1000B0000501000805010008000000000000000024
:1000C0000348854600F032F8004800474102000826
:1000D000100400200C4880F308880C480168090EC1
:1000E0000B4A914205D10B480B4901600B480C4962
:1000F00001600C4880470C480047FEE7FEE7FEE73A
:10010000FEE7FEE7FEE70000100400200400000008
:100110001F000000341002400100000000000140F8
:100120000000000021020008C1000008064C012563
:10013000064E05E0E36807CC2B430C3C984710348F
:10014000B442F7D3FFF7C0FFD4030008F40300085C
:10015000034B1A600160586901210842FBD17047C6
:100160000420024080B504488E490160486809684F
:1001700081F30888804780BD08ED00E003480078DF
:1001800003490A68101808607047C0460000002044
:1001900008000020FEE7FEE770470000B0B51D49EB
:1001A00005220A60CB6920221342FBD04B6A037000
:1001B000DDB2EC1C8523FF2D00D02346022B09D392
:1001C0000124CD691542FCD04D6A4570641C401C69
:1001D0009C42F6D10120086098B2B0BD7047000083
:1001E00010B50C4A09231360002903D10AE0401C12
:1001F000002907D003789362491ED36980242342E3
:10020000FBD0F4E7D06940210842FBD00120106008
:1002100010BDC0460048004080B5FFF7AFFF80BD6D
:1002200070470000BFF34F8F034804490160BFF3DC
:100230004F8F00BFFDE7C0460CED00E00400FA055B
:10024000F0B5FFB088B04C4F4C4878600025BD60D9
:1002500005243C600320009040044949C860012007
:10026000019008601320C143464E082070500F21B2
:10027000C943454A725021074A68022313434B6021
:10028000CA6804231343CB6060220A620A680C2305
:100290009A4302430A603D480921FFF7A1FF1B2052
:1002A000C043345030682024204203D00AE0306834
:1002B000204207D10198000439680142F7D0FFF7C6
:1002C00051FFF4E732483349016033490160334953
:1002D00041603349416002A8061D0BE010200299DD
:1002E000014302A80170019A42708270C17004211A
:1002F000FFF776FF02A8FFF751FF002809D002A9F7
:100300002A460B785A40401E491C0028F9D1100695
:10031000E4D102A84078882802D0C728EAD128E092
:100320002F4602A8C178807800020843C0011D4909
:1003300044184120C20000212046FFF709FF009821
:10034000C543701941686019001D0022FFF700FFC6
:100350002D1D7C2DF5DB02A813490180C178827820
:100360004A400A21514001710521FFF739FF3D46FE
:10037000C0E7FFF757FFC04610E000E05634120018
:100380002C1002401C48004055D00000CA03000851
:100390000C200240EFCDAB8905040302BFAE9D8C5B
:1003A00016151413000400080208000002E008C833
:1003B000121F08C1002AFAD170477047002001E0DF
:1003C00001C1121F002AFBD1704706470102030733
:1003D00000783E00F803000800000020080000003C
:1003E000AC03000800040008080000200804000016
:1003F000BC03000800000000010000000000000035
:04000005080000C12E
:00000001FF
