:020000040800F2
:10000000000B00206101000855120008E5110008EE
:1000100000000000000000000000000000000000E0
:10002000000000000000000000000000B112000805
:10003000000000000000000059120008F91200083A
:1000400073010008730100087301000873010008C0
:1000500073010008730100087301000873010008B0
:1000600073010008730100087301000873010008A0
:100070007301000873010008730100087301000890
:1000800073010008730100080000000073010008FC
:100090007301000873010008730100087301000870
:1000A0007301000873010008730100087301000860
:1000B00073010008000000007301000800F002F85E
:1000C00000F03EF80CA030C8083824182D18A246BD
:1000D000671EAB4654465D46AC4201D100F030F895
:1000E0007E460F3E0FCCB6460126334200D0FB1AA7
:1000F000A246AB4633431847AC2C0000CC2C000082
:10010000103A02D378C878C1FAD8520701D330C860
:1001100030C101D504680C60704700000023002442
:1001200000250026103A01D378C1FBD8520700D32E
:1001300030C100D50B6070471FB51FBD10B510BD95
:1001400000F07BF91146FFF7F7FF01F0CBFB00F061
:1001500093F903B4FFF7F2FF03BC00F099F9000034
:100160000748804707480047FEE7FEE7FEE7FEE74F
:10017000FEE7FEE704480549054A064B70470000C4
:1001800073130008BD00000800050020000B0020CC
:100190000007002000070020FEB5054610460C466B
:1001A000184373D0AE468C460020AD1A01469C41E0
:1001B00067D36646002701243D46B61A9D4102D307
:1001C00013463A462124654676462F04360C3E43B4
:1001D0002D0CB61A9D4104D3150C1B042B4312049D
:1001E0001034654676462F06360A3E432D0AB61A67
:1001F0009D4104D3150E1B022B43120208346546A1
:1002000076462F0736093E432D09B61A9D4104D381
:10021000150F1B012B431201241D65467646AF07BF
:10022000B6083E43AD08B61A9D4104D3950F9B0016
:100230002B439200A41C65467646EF0776083E43A2
:100240006D08B61A9D411AD392185B41641C16E0E2
:100250000018764665464941B71A9D4101910090C4
:1002600009D36046B11A98418E4684460098019998
:100270000025401C6941DD0752082A435B08641EC3
:10028000E6D57246634603B0F0BDFFE700200146A5
:10029000C046C0462A462346F5E701E004C0091FD0
:1002A0000429FBD28B0701D50280801CC90700D02E
:1002B0000270704700290BD0C30702D00270401CA7
:1002C000491E022904D3830702D50280801C891E9F
:1002D000E3E70022EEE70022DFE7002203098B427A
:1002E0002CD3030A8B4211D300239C464EE00346D5
:1002F0000B433CD4002243088B4231D303098B4289
:100300001CD3030A8B4201D394463FE0C3098B42BE
:1003100001D3CB01C01A524183098B4201D38B0117
:10032000C01A524143098B4201D34B01C01A5241BA
:1003300003098B4201D30B01C01A5241C3088B42FF
:1003400001D3CB00C01A524183088B4201D38B00EA
:10035000C01A524143088B4201D34B00C01A52418C
:10036000411A00D201465241104670475DE0CA0F63
:1003700000D04942031000D34042534000229C4623
:1003800003098B422DD3030A8B4212D3FC2289012D
:1003900012BA030A8B420CD3890192118B4208D303
:1003A000890192118B4204D389013AD0921100E065
:1003B0008909C3098B4201D3CB01C01A5241830979
:1003C0008B4201D38B01C01A524143098B4201D3A6
:1003D0004B01C01A524103098B4201D30B01C01AD1
:1003E0005241C3088B4201D3CB00C01A524183084B
:1003F0008B4201D38B00C01A5241D9D243088B42A1
:1004000001D34B00C01A5241411A00D20146634643
:1004100052415B10104601D34042002B00D54942A7
:10042000704763465B1000D3404201B50020C046D0
:10043000C04602BD704770477047754600F024F80B
:10044000AE46050069465346C008C000854618B050
:1004500020B5FFF78FFE60BC00274908B64600268E
:10046000C0C5C0C5C0C5C0C5C0C5C0C5C0C5C0C564
:10047000403D49008D46704710B50446C046C04611
:100480002046FFF766FE10BD004870479C04002020
:1004900001491820ABBEFEE726000200704772B685
:1004A00000BFFEE778B503460A460021DFE00126DB
:1004B0008E4014683440002C7ED01579AD07AD0F06
:1004C000012D04D01579AD07AD0F022D18D1986814
:1004D0004E000325B5400646AE4330464E00D56873
:1004E000B54028439860586801258D400646AE43C4
:1004F00030461026556835402D098D4028435860F8
:100500001579AD07AD0F032D0BD0D8684E0003252C
:10051000B5400646AE4330464E009568B540284388
:10052000D8601579AD07AD0F022D15D1CD08AE00FD
:100530001D462035A8594D07EE0E0F25B54006463D
:10054000AE4330464E07F60E1569B5402843CD0838
:10055000AD001E462036705118684E000325B54088
:100560000646AE4330461579AD07AD0F4E00B54097
:10057000284318600326360455683540002D75D091
:1005800000BF3E4DAD69012635433C4EB561354651
:10059000AD69ED07ED0F009500BF00BF384D8E0827
:1005A000B600A8598D072E0F0F25B5400646AE435D
:1005B00030460925ED0600E058E0AB4201D10025A8
:1005C0000FE0304DAB4201D101250AE02E4DAB4288
:1005D00001D1022505E02D4DAB4201D1032500E0FC
:1005E00005258E07360FB5402843254D8E08B600E9
:1005F000A851274DA8680546A5432846012636057B
:1006000055683540002D02D0054625432846204D2B
:10061000A860E8680546A543284601267605556882
:100620003540002D02D0054625432846184DE86088
:1006300068680546A5432846012676045568354076
:10064000002D02D0054625432846114D68602868D4
:100650000546A54328460126360455683540002D39
:1006600002D0054625432846094D2860491C1568D7
:10067000CD40002D00D01AE778BD000000100240E8
:10068000080001400004004800080048000C004831
:100690000004014001480068704700000400002089
:1006A00010B50446002C01D1012010BDE06F0028D8
:1006B00005D1002178200155204600F053FD24206B
:1006C000E067206800684008400021680860204614
:1006D00000F088FF012800D1E7E7606A002802D017
:1006E000204600F047FE206840680921C90288437F
:1006F00021684860206880682221884321688860DA
:1007000020688068082108432168886020680068A4
:100710000121084321680860204600F0A3FEC4E7D9
:100720000348006803490978401801490860704788
:10073000040000200C00002010B5064800681021BD
:10074000084304490860032000F006F800F02EF882
:10075000002010BD0020024070B50446104801780A
:100760007D20C000FFF7B9FD064631460D48006800
:10077000FFF7B3FD054600F0D9FC002801D00120A9
:1007800070BD042C07D200222146501E00F02EF826
:100790000548046001E00120F2E70020F0E70000D6
:1007A0000C000020100000200800002008B500BF49
:1007B0000D488069012108430B498861084680691A
:1007C000C007C00F009000BF00BF00BF0846C0694F
:1007D000090408430449C8610846C069090408407F
:1007E000009000BF00BF08BD0010024070B5044675
:1007F0000D4616462946204601F032F870BD00002D
:10080000F8B50446002600250121090420680840A7
:1008100088427AD100275248C0690903084000285D
:100820000DD100BF4E48C06908434D49C861084614
:10083000C06909040840009000BF00BF0127494873
:100840000068FF2101310840002816D145480068A2
:10085000084344490860FFF71DFF064606E0FFF71E
:1008600019FF801B642801D90320F8BD3D480068AA
:10087000FF21013108400028F1D03948006A0321E6
:10088000090208400546002D2DD060680840A842A6
:1008900029D03348006A884305463148006A01215F
:1008A000090408432E4908620846006A0121090428
:1008B00088432B49086208460562E807C00F0028F4
:1008C00011D0FFF7E7FE064607E0FFF7E3FE801BC7
:1008D0002549884201D90320C7E72148006A02213F
:1008E00008400028F1D01E48006A0321090288430D
:1008F000616808431A490862012F05D10846C0699A
:10090000090488431649C86100BF2078C007C00F9A
:10091000002807D01248006B80088000A1680843B7
:100920000F490863202120680840202807D10C487F
:10093000006B10218843E1680843094908630121DD
:10094000890220680840884207D10548006B402191
:1009500088432169084302490863002085E70000B5
:1009600000100240007000408813000070B504467B
:100970000D46002C01D1012070BD52480068C0070F
:10098000C00FA8420ED24F480068400840002843DC
:100990004C49086008460068C007C00FA84201D053
:1009A0000120E9E7022120680840022814D104212F
:1009B00020680840042807D14348406807210902FD
:1009C00088434018404948603F484068F0218843C8
:1009D000A16808433C4948602078C007C00F002840
:1009E0003BD06068012808D13748006801214904DC
:1009F0000840002815D10120BEE76068022808D110
:100A000031480068012149060840002809D1012029
:100A1000B2E72D48006802210840002801D10120DA
:100A2000AAE7294840688008800061680843264991
:100A30004860FFF72FFE064607E0FFF72BFE801BFE
:100A40002249884201D9032096E71F4840680C21BB
:100A50000840616889008842EFD11A480068C007E1
:100A6000C00FA8420ED9174800684008400028432C
:100A70001449086008460068C007C00FA84201D0AA
:100A8000012079E7042120680840042808D10E4895
:100A90004068072109028843E16808430A49486021
:100AA00000F032F808494968F02211400909084A63
:100AB000515CC840074908600320FFF74DFE002045
:100AC0005AE7000000200240001002408813000096
:100AD0008C2D0008100000200148006870470000BD
:100AE0001000002000B5FFF7F7FF0549496807220D
:100AF00012021140090A034A515CC84000BD0000BF
:100B0000001002409C2D0008F8B5002400250027A5
:100B10000026002000901D4844680C20204000283A
:100B20002DD0042802D0082828D102E018480090CF
:100B300028E00F2080042040800C16490E5C1348EA
:100B4000C06A0007000F14490D5C0120000420401A
:100B50000121090488420AD12A4600230C4819467B
:100B6000FFF71AFB314600F063FE074604E00B482E
:100B7000314600F05DFE0746009703E000BF0448E1
:100B8000009000BF00BF0098F8BD000000100240B8
:100B900000127A006C2D00087C2D000800093D0031
:100BA000FEB50446002C01D10120FEBD2078C0070F
:100BB000C00F002871D0FC4840680C210840042870
:100BC0000BD0F94840680840082812D1F648406820
:100BD00001210904084088420BD1F3480068012133
:100BE0004904084000286BD06068002868D10120C3
:100BF000DBE700BF6068012807D1EB4800680121EE
:100C000009040843E849086031E0606800280ED113
:100C1000E5480068012109048843E3490860084663
:100C20000068012189048843DF4908601FE060688B
:100C300005280ED1DC480068012189040843DA49FF
:100C4000086008460068012109040843D649086085
:100C50000DE0D5480068012109048843D2490860A5
:100C600008460068012189048843CF49086000BF15
:100C70006068002812D0FFF70DFD054606E0FFF77B
:100C800009FD401B642801D903208EE7C64800688F
:100C90000121490408400028F1D011E0FFF7FAFCD7
:100CA000054606E0FFF7F6FC401B642801D9032047
:100CB0007BE7BD4800680121490408400028F1D1C4
:100CC000022120680840022861D1B74840680C2101
:100CD000084000280BD0B4484068084008281BD1C1
:100CE000B1484068012109040840002814D1AE48E9
:100CF000006802210840002804D0E068012801D0E3
:100D0000012052E7A8480068F82188432169C900FA
:100D10000843A54908603AE0E068002820D0A248CE
:100D2000006801210843A0490860FFF7B3FC0546AD
:100D300006E0FFF7AFFC401B022801D9032034E78F
:100D400099480068022108400028F2D096480068BF
:100D5000F82188432169C90008439349086016E0D7
:100D600091480068400840008F490860FFF792FCF6
:100D7000054606E0FFF78EFC401B022801D9032040
:100D800013E789480068022108400028F2D10821B1
:100D900020680840082831D1E069002817D082482F
:100DA000406A0121084380494862FFF773FC054609
:100DB00006E0FFF76FFC401B022801D90320F4E690
:100DC0007948406A022108400028F2D016E07648AF
:100DD000406A4008400074494862FFF75BFC0546E2
:100DE00006E0FFF757FC401B022801D90320DCE690
:100DF0006D48406A022108400028F2D10421206891
:100E00000840042873D1002001906748C069890612
:100E1000084000280ED100BF6348C06908436249FA
:100E2000C8610846C06909040840009000BF00BFBF
:100E3000012001905D480068FF2101310840002831
:100E400016D15A480068084358490860FFF722FC49
:100E5000054606E0FFF71EFC401B642801D903206D
:100E6000A3E652480068FF21013108400028F1D074
:100E700000BFA068012806D14B48006A0121084341
:100E8000494908622BE0A06800280CD14648006A56
:100E900040084000444908620846006A042188432B
:100EA000414908621BE0A06805280CD13E48006A51
:100EB000042108433C4908620846006A01210843AE
:100EC000394908620BE03848006A4008400036495A
:100ED00008620846006A042188433349086200BF5B
:100EE000A068002813D0FFF7D5FB054608E02BE0EB
:100EF000FFF7D0FB401B2E49884201D9032054E65E
:100F00002948006A022108400028F1D011E0FFF7CB
:100F1000C1FB054607E0FFF7BDFB401B24498842A3
:100F200001D9032041E62048006A02210840002838
:100F3000F1D10198012806D11B48C0690121090798
:100F400088431949C86100BF102120680840102853
:100F500060D1606901282DD11348406B04210843FA
:100F6000114948630846406B012108430E49486314
:100F7000FFF790FB054606E0FFF78CFB401B0228BD
:100F800001D9032011E60848406B022108400028DF
:100F9000F2D00548406BF8218843A169C900084395
:100FA0000149486336E00000001002400070004034
:100FB000881300006069401D00280FD15A48406B1B
:100FC00004218843584948630846406BF821884308
:100FD000A169C9000843544948631BE05248406B6B
:100FE00004210843504948630846406B40084000CC
:100FF0004863FFF74FFB054606E0FFF74BFB401B3E
:10100000022801D90320D0E54748406B022108405F
:101010000028F2D1206A00284FD0434840680C21B4
:101020000840082864D0206A022847D13E4800685A
:101030000121090688433C490860FFF72BFB054660
:1010400006E0FFF727FB401B022801D90320ACE58F
:10105000354800680121490608400028F1D100BF49
:101060003148C06A00090001E16A08432E49C8629C
:10107000616AA06A08432C4949683D2212049143E1
:1010800008432949486000BF084600680121090655
:10109000084325490860FFF7FDFA054606E0FFF71B
:1010A000F9FA401B022801D903207EE51E4800689A
:1010B0000121490608400028F1D033E01A480068B1
:1010C00001210906884318490860FFF7E3FA05463D
:1010D00006E0FFF7DFFA401B022801D9032064E590
:1010E000114800680121490608400028F1D119E0A3
:1010F000206A012800D158E50B484668C76A0120DC
:1011000000043040616A88420AD13907090FE06A59
:10111000814205D10F2080043040A16A884201D06D
:10112000012042E5002040E50010024070B5044671
:101130002546681E0949884201D901200CE0681E35
:10114000074948610321081F00F08AFB0020044979
:10115000886107200861002070BD0000FFFFFF00CC
:1011600000E000E010B586B00446142101A8FFF7A6
:10117000B2F81A49206888422DD100BF184880690A
:1011800001218903084316498861084680690121C5
:1011900089030840009000BF00BF00BF10484069AD
:1011A000C90008430E4948610846406901214904C5
:1011B0000840009000BF00BF08120190122002906A
:1011C00001200390032004900120059001A909202B
:1011D000C006FFF767F906B010BD000000380140F7
:1011E0000010024000BFFEE708B500BF0748406995
:1011F0000121490408430549486108464069012125
:1012000049040840009000BF00BF08BD0010024024
:1012100010B50E480E4908604B20C00148600021FF
:101220000B488160C16001610C2141610021816135
:10123000C16101620020064948620846FFF730FAA2
:10124000002801D0FFF72BF910BD00000038014045
:101250001400002000BFFEE77047000010B50146F3
:101260000522124B1A6000BF104AD26920231A408F
:10127000002AF9D00D4A203292880A700878491C59
:10128000C01C01220CE000BF084BDB692024234076
:10129000002BF9D0054B20339B880B70491C521C46
:1012A0008242F0DB0122014B1A6010BD0038014080
:1012B0007047000009220F4B1A600BE002780D4BBB
:1012C00020331A81401C00BF0A4AD26980231A4089
:1012D000002AF9D00A46491E002AEFD100BF054A6C
:1012E000D26940231A40002AF9D00122014B1A602A
:1012F000704700000038014010B5FFF711FA10BD2B
:1013000000B595B0302109A8FEF7E5FF0020059053
:1013100006900790089014216846FEF7DCFF022033
:10132000099001200C9010200D900020119009A828
:10133000FFF736FC002801D0FFF7B1F80720059031
:101340000020069007900890002105A8FFF70EFBEB
:10135000002801D0FFF7A3F80120009000200290A0
:101360006846FFF74DFA002801D0FFF798F815B04E
:1013700000BD7047818CC907C90F002908D00168DA
:101380004968012252049143826A11430268516004
:101390000222416A1140022907D101684968D2033B
:1013A0009143C26A1143026851600422416A1140AC
:1013B000042907D10168496812049143026B114363
:1013C000026851600822416A1140082907D101686A
:1013D000496812039143426B114302685160102225
:1013E000416A1140102907D10168896812029143AE
:1013F000826B1143026891602022416A11402029CA
:1014000007D10168896812029143C26B11430268D7
:1014100091604022416A1140402915D10168496814
:1014200092039143026C114302685160012212053C
:10143000016C914208D10168496803225205914329
:10144000426C1143026851608022416A1140802938
:1014500007D10168496812039143826C1143026805
:1014600051607047F8B50446002184200151FFF710
:1014700011F905462068006808210840082823D192
:1014800037482B46002289040090204600F07AF964
:10149000002819D000BF00F01FFA0646012000F016
:1014A0001EFA206800688021884321680860304661
:1014B00000F015FA00BF2020E06700BF002178206F
:1014C000015500BF0320F8BD2068006804210840D2
:1014D000042836D122482B460022090500902046D8
:1014E00000F050F900282CD000BF00F0F5F90646B6
:1014F000012000F0F4F920680068FF2121318843C1
:1015000021680860304600F0EAF900BF00BF00F033
:10151000E3F90646012000F0E2F9206880684008FF
:10152000400021688860304600F0D9F900BF2021D2
:101530008020015100BF00217820015500BF032009
:10154000C1E72020E0672021802001510020206693
:10155000606600BF00217820015500BF0020B2E77F
:10156000FFFFFF0170B5044600BF00F0B5F9054666
:10157000012000F0B4F920680068FF212131884380
:1015800021680860284600F0AAF900BF00BF00F0FB
:10159000A3F90546012000F0A2F920688068400800
:1015A000400021688860284600F099F900BF206E4D
:1015B000012810D100BF00F08FF90546012000F08E
:1015C0008EF9206800681021884321680860284649
:1015D00000F085F900BF2021802001510020206605
:1015E000A06670BDFEB50446002000902169A06889
:1015F000084361690843E169084302902068006874
:101600005A490840029908432168086020684068E8
:10161000032109038843E168084321684860A06901
:101620000290206A029908430290206880680B218A
:1016300009028843029908432168886000BF4C4929
:101640002068884217D14B48006B8007800F002824
:1016500006D0012808D0022808D0032808D101E0CC
:10166000002707E0022705E0042703E0082701E040
:10167000102700BF06E040492068884201D10027BA
:1016800000E0102700BF0121C903E069884239D179
:10169000002F06D0022F08D0042F08D0082F0DD11C
:1016A00009E0FFF71FFA05460CE0344D0AE0FFF7AA
:1016B0002BFA054606E00125ED0303E00025012095
:1016C000009000BF00BF002D4AD06A0063685B082D
:1016D000D0186168FEF701FE0646102E0FD3284889
:1016E00086420CD826480F38304001903007400F12
:1016F00001990843019001982168C86030E00120F9
:1017000000902DE0002F06D0022F08D0042F08D023
:10171000082F0DD109E0FFF7E5F905460CE0174D5C
:101720000AE0FFF7F1F9054606E00125ED0303E0C5
:1017300000250120009000BF00BF002D10D061687F
:101740004A085019FEF7C9FD0646102E06D30C486C
:10175000864203D8B0B22168C86001E00120009041
:101760000020A066E0660098FEBD0000F369FFFF60
:1017700000380140001002400044004000127A008E
:10178000FFFF0000FFB581B004460D4617460A9ED4
:1017900042E0701C00283FD0FEF77CFF0499401AFD
:1017A000B04201D8002E02D1032005B0F0BD206860
:1017B00000680421084000282ED02068C069082154
:1017C0000840C00800280FD0082021680862204681
:1017D000FFF7C8FE08218420015100BF00217820B6
:1017E000015500BF0120E0E72068C0690121C9025E
:1017F0000840C00A00280FD0084621680862204629
:10180000FFF7B0FE20218420015100BF0021782085
:10181000015500BF0320C8E72068C0692840A842DE
:1018200001D1012000E00020B842B2D00020BCE786
:10183000F8B582B28BB2040C0D0C1046584300214F
:1018400026465E43370C36048019794116466E43AE
:10185000370C36048019794126466E438919F8BD44
:1018600010B5002819DB1A4A03231B02D21883087B
:101870009B00D2588307DC0EFF23A3409A438B07BB
:101880001B0E8407E40EA3401A43114B03242402C9
:101890001B198408A4001A5118E00E4A03071B0FF5
:1018A000083B9B089B00D2588307DC0EFF23A34014
:1018B0009A438B071B0E8407E40EA3401A43054B83
:1018C0000407240F083CA408A4001A5110BD00000E
:1018D00000E100E01CED00E0EFF31080704780F3C2
:1018E00010887047FEF728FFFFF70AFDFFF77CFC22
:1018F000FFF78EFC2D48FFF7B1FC2C4840792C49AE
:101900000870084601780120884085B22748807910
:1019100000022649C9794018264908800024264F2C
:1019200033E00026FF2021490870882048702012EB
:101930008870CC70002005E03A78011D1B4B5A548A
:101940007F1C401CA842F7DB002003E01749095C1C
:101950004E40401C16490A7801219140091D8142E0
:10196000F4DC1348017801208840001D0F490E5413
:101970000F48027801209040411D0C48FFF79AFC67
:101980000A48FFF76BFC601C84B2204668430B4991
:101990008842C6D3002005490870C7204870887067
:1019A00003210248FFF786FC00BFFEE79C000020F1
:1019B0000000002002000020C0190008AC13000045
:1019C000B006002065030008B51200084D1200089B
:1019D0000000000000000000000000000000000007
:1019E000000000000000000000000000B912000824
:1019F0000000000000000000B7120008BB12000841
:101A00009503000895030008950300089503000856
:101A10009503000895030008950300089503000846
:101A200000000000950300089503000895030008D6
:101A30009503000895030008000000003513000816
:101A40000000000000000000000000000000000096
:101A50009503000800000000000000009503000846
:101A600000000000950300080000000000000000D6
:101A70009503000895030008000000000000000026
:101A800000F002F800F03EF80CA030C80838241826
:101A90002D18A246671EAB4654465D46AC4201D1A6
:101AA00000F030F87E460F3E0FCCB646012633429A
:101AB00000D0FB1AA246AB46334318478012000001
:101AC000A0120000103A02D378C878C1FAD85207A1
:101AD00001D330C830C101D504680C6070470000E4
:101AE0000023002400250026103A01D378C1FBD83A
:101AF000520700D330C100D50B6070471FB51FBD22
:101B000010B510BD00F099F91146FFF7F7FF01F08D
:101B1000D9F800F0B1F903B4FFF7F2FF03BC00F00D
:101B2000B7F900000F4880F308880F480168090ED4
:101B30000E4A914205D10E480E4901600E480F49E8
:101B400001600F4880470F480047FEE7FEE7FEE7C9
:101B5000FEE7FEE7FEE700000B480C490C4A0D4B80
:101B600070470000B0060020040000001F000000C5
:101B7000341002400100000000000140000000009D
:101B800031130008C1020008B0000020B006002098
:101B9000B0020020B0020020FEB5054610460C46FB
:101BA000184373D0AE468C460020AD1A01469C41C6
:101BB00067D36646002701243D46B61A9D4102D3ED
:101BC00013463A462124654676462F04360C3E439A
:101BD0002D0CB61A9D4104D3150C1B042B43120483
:101BE0001034654676462F06360A3E432D0AB61A4D
:101BF0009D4104D3150E1B022B4312020834654687
:101C000076462F0736093E432D09B61A9D4104D367
:101C1000150F1B012B431201241D65467646AF07A5
:101C2000B6083E43AD08B61A9D4104D3950F9B00FC
:101C30002B439200A41C65467646EF0776083E4388
:101C40006D08B61A9D411AD392185B41641C16E0C8
:101C50000018764665464941B71A9D4101910090AA
:101C600009D36046B11A98418E468446009801997E
:101C70000025401C6941DD0752082A435B08641EA9
:101C8000E6D57246634603B0F0BDFFE7002001468B
:101C9000C046C0462A462346F5E701E004C0091FB6
:101CA0000429FBD28B0701D50280801CC90700D014
:101CB0000270704700290BD0C30702D00270401C8D
:101CC000491E022904D3830702D50280801C891E85
:101CD000E3E70022EEE70022DFE7002203098B4260
:101CE0002CD3030A8B4211D300239C464EE00346BB
:101CF0000B433CD4002243088B4231D303098B426F
:101D00001CD3030A8B4201D394463FE0C3098B42A4
:101D100001D3CB01C01A524183098B4201D38B01FD
:101D2000C01A524143098B4201D34B01C01A5241A0
:101D300003098B4201D30B01C01A5241C3088B42E5
:101D400001D3CB00C01A524183088B4201D38B00D0
:101D5000C01A524143088B4201D34B00C01A524172
:101D6000411A00D201465241104670475DE0CA0F49
:101D700000D04942031000D34042534000229C4609
:101D800003098B422DD3030A8B4212D3FC22890113
:101D900012BA030A8B420CD3890192118B4208D3E9
:101DA000890192118B4204D389013AD0921100E04B
:101DB0008909C3098B4201D3CB01C01A524183095F
:101DC0008B4201D38B01C01A524143098B4201D38C
:101DD0004B01C01A524103098B4201D30B01C01AB7
:101DE0005241C3088B4201D3CB00C01A5241830831
:101DF0008B4201D38B00C01A5241D9D243088B4287
:101E000001D34B00C01A5241411A00D20146634629
:101E100052415B10104601D34042002B00D549428D
:101E2000704763465B1000D3404201B50020C046B6
:101E3000C04602BD704770477047754600F024F8F1
:101E4000AE46050069465346C008C000854618B036
:101E500020B5FFF781FE60BC00274908B646002682
:101E6000C0C5C0C5C0C5C0C5C0C5C0C5C0C5C0C54A
:101E7000403D49008D46704710B50446C046C046F7
:101E80002046FFF748FE10BD004870475000002074
:101E900001491820ABBEFEE7260002007047000093
:101EA000F8B5002303240125B3E032462E469E40B8
:101EB000B446324079D00E79B607B60F012E01D064
:101EC000022E17D186682746B6465E00B7400096B8
:101ED0007646BE43B646CF68009EB7407646374347
:101EE000876046686746BE430F79FF06FF0F9F4035
:101EF000374347600E79F643B6070ED0C6682746CB
:101F0000B4465E00B646B7406646BE43B4468F68E8
:101F10007646B74066463743C7600E79B607B60FB8
:101F2000022E14D1DE08B60036180096366A5F0716
:101F3000B446FE0E0F27B646B7406646BE43B446CB
:101F40000F697646B74066463743009E376206689B
:101F50002746B4465E00B646B7406646BE430F7994
:101F6000B446BF07BF0F7646B740664637430760A3
:101F70004E68B603B60F4BD0294F7E6B2E437E635F
:101F80009F08284EBF00BE190096B6680F27B446BA
:101F90009E07360FB646B7406646BE4305273F0745
:101FA000B446B84202D100270BE031E01E4FB842E0
:101FB00001D1012705E01D4FB84201D1022700E001
:101FC00006277646B74066463743009EB760184EF0
:101FD000B6684F689643FF0200D51643144FBE60A3
:101FE000FE684F689643BF0200D51643104FFE604F
:101FF0007E684F689643BF0300D516430C4F7E6042
:102000003E684F689643FF0300D51643084A1660A2
:102010005B1C0A681646DA4000D046E7F8BD0000AF
:102020000010024000000140000400500008005071
:1020300000040140426913460B401B0491430B43CB
:1020400083617047002A01D08161704781627047C7
:102050000148806870470000000000200248816845
:1020600002788918816070470000002010B5084888
:1020700000240168402211430160032000F00AF8A7
:10208000002801D0012401E000F026F8204610BD10
:102090000020024070B504460D4D7D202978C00017
:1020A000FFF71BFE01460B480068FFF716FE00F025
:1020B00053FB002809D1042C07D200222146401EE0
:1020C00000F022F800206C6070BD012070BD00009F
:1020D000000000200C0000200448416B0122114345
:1020E0004163816B02041143816370470010024019
:1020F000002805DBC106C90E01208840014908609F
:102100007047000000E100E010B500F0B9FD10BD1F
:10211000F8B50E46050038D05E480068C007C00F0D
:10212000B04214D25B4C206840084000304320602D
:10213000FFF78EFF074605E0FFF78AFFC11B5648F1
:1021400081427AD82068C007C00FB042F4D1287805
:10215000524C800705D5E068F0218843A968084300
:10216000E0602878C00752D06868022806D00328AB
:1021700007D0216801280AD0890504E02168890375
:1021800001E021688901002903DB0120F8BD49072E
:10219000F9E7E168890889000143E160FFF758FF2A
:1021A0000746686802280AD0032814D001281ED0E8
:1021B00029E0FFF74DFFC11B374881423DD8E06859
:1021C0000007800F0228F4D121E0FFF741FFC11B77
:1021D0003148814231D8E0680007800F0328F4D1EC
:1021E00015E0FFF735FFC11B2B48814225D8E06879
:1021F0000007800F0128F4D109E0FFF729FFC11B78
:102200002548814219D8E0680007800FF5D12148A0
:102210000168C907C90FB14217D9016849084900C7
:1022200031430160FFF714FF074608E005E0FFF7C0
:102230000FFFC11B1848814201D90320F8BD154882
:102240000068C007C00FB042F1D12878400706D51A
:10225000E068072109028843E9680843E0602878BC
:10226000000707D5E0680721C90288432969C9002A
:102270000843E06000F01AF8E168094A0906090F0E
:10228000515CC8400749086007480068FFF702FF33
:10229000F8BD00000020024088130000001002403A
:1022A000601500080C0000200400002070B51A4AD8
:1022B000D3681A490C2018408D0004280CD04E0019
:1022C000082810D00C2810D050680004410F0120BD
:1022D000C003491C884070BD1068C00601D508467F
:1022E00070BD284670BD304670BD98020C4C000F82
:1022F000205C1B029C0FD368641CDB0301D53146B4
:1023000003E01268D20600D4294600F094FC22466D
:102310000023FFF741FC70BD0010024000093D00A2
:1023200070150008FEB505007ED0F74CE7680C205C
:10233000E66807400120000406402878C00747D01F
:10234000082F05D00C2F0AD101200004864206D1A7
:10235000206880033CD568680028E5D038E001207B
:1023600069680004814203D121680143216011E0C2
:10237000052301221B0492049942216802D11143D2
:102380002160F1E7814321602168014000912068CC
:1023900090432060686800280DD0FFF759FE009038
:1023A00005E0FFF755FE0099401A64287ED82068A2
:1023B0008003F6D50CE0FFF74BFE009005E0FFF739
:1023C00047FE0099401A6428F0D820688003F6D4AC
:1023D000287880075DD5E868810604D52268202129
:1023E0000A43226088430923042F0DD00C2F01D10A
:1023F000002E09D000283CD0216899430143216078
:10240000FFF726FE064628E02168490701D5002887
:102410008AD061681F22120291432A691202114375
:1024200061602168994300E091E101432160FFF779
:102430003DFFE16809060A0FB449895CC840B44908
:102440000860B4480068FFF725FE002874D120E03A
:10245000FFF7FEFD801B0228A8D820684007F7D5AB
:1024600060681F21090288432969090208436060E6
:102470000FE02068400840002060FFF7E9FD0646B5
:1024800004E0FFF7E5FD801B02288FD82068400795
:10249000F7D42878C00661D5002F0DD0A869002890
:1024A0004BD02068FF210131084300E0C6E02060E6
:1024B000FFF7CEFD06462DE02068800502D5A8690D
:1024C0000028A5D06068072149038843296A08438A
:1024D00060606068297F0002000A090608436060A6
:1024E000286A410B0120C003491C8840E1680906A5
:1024F0000A0F8649895CC84085490860854800689C
:10250000FFF7C8FD002817D128E0FFF7A1FD801BC9
:102510000228A1D820688005F7D560680721490303
:102520008843296A084360606068297F0002000AC6
:1025300009060843606011E0E1E02168FF200130F6
:1025400081432160FFF784FD064604E0FFF780FD2C
:10255000801B022872D820688005F7D428786E4E38
:10256000000724D568690028306910D0012108438C
:102570003061FFF76DFD009005E0FFF769FD009900
:10258000401A02285AD830698007F6D50FE0400873
:1025900040003061FFF75CFD009005E0FFF758FD5B
:1025A0000099401A022849D830698007F6D4287863
:1025B000400765D500200290A06BC00006D4A06B38
:1025C000012109070843A0630120029053480168D4
:1025D000C90511D40168821511430160FFF738FD68
:1025E000009005E0FFF734FD0099401A642825D8D3
:1025F0004A480068C005F5D5FF20AA68013082422C
:1026000003D131690143316111E001218902002ABE
:1026100007D005231B029A4203D132690A43326173
:10262000EFE7326982433261306988433061A868DC
:1026300000280FD0FFF70CFD009007E05EE0FFF7E9
:1026400007FD0099411A3648814257D83069800504
:10265000F5D50DE0FFF7FCFC009006E0FFF7F8FC75
:102660000099411A2E48814248D830698005F5D436
:102670000298002804D0A06B012109078843A063B9
:10268000686A002865D00C2F4CD001263606022837
:10269000206805D0B0432060FFF7DAFC05462FE044
:1026A000B0432060FFF7D4FC074604E0FFF7D0FCFE
:1026B000C01B022822D820688001F7D4E96AA86AE2
:1026C000E2680843296BFD231B049A431143084326
:1026D000E060206830432060FFF7BAFC054604E064
:1026E000FFF7B6FC401B022808D820688001F7D508
:1026F0002FE0FFF7ADFC401B022801D90320FEBDEF
:1027000020688001F5D424E0001002406015000824
:102710000C00002004000020401002400070004027
:10272000881300000128EAD0E06801210904AA6AA0
:10273000014091420BD10F218904EA6A0140914284
:1027400005D1032189050840296B884201D0012069
:10275000FEBD0020FEBD0000094910B5401E8842A4
:1027600001D9012010BD074C60610321081F00F052
:1027700087FA0020A06107202061002010BD000022
:10278000FFFFFF0000E000E0F0B502462032137EBC
:10279000012B1BD0012616760223537605686B6841
:1027A000AC687027BB430F681F436F600068B307B6
:1027B000984202D0064B984204D1802349689C433A
:1027C00021438160567600201076F0BD0220F0BDD6
:1027D0000008014070B5050005D02C462034607E0D
:1027E000002802D006E0012070BD00202076284697
:1027F00000F010F802206076291D286800F082F9A8
:102800000120A077A076E0762077607760760020C0
:1028100070BD000010B500680121890788420CD105
:102820000648816B012211438163002211460F206B
:10283000FFF76AFC0F20FFF75BFC10BD00100240A1
:10284000014620314A7E012A01D001207047022230
:102850004A760268D36801210B43D36000688A0777
:10286000904202D0064A904204D182685207520F29
:10287000062A02D002680A43026000207047000066
:1028800000080140704770B50446006801690025E2
:10289000C9438907002915DBC168C943890711D4D9
:1028A000E91E0161012020762068806980072046AA
:1028B00002D0FFF7E7FF04E000F078F8204600F0D0
:1028C00076F8257620680169C943490717D4C1689D
:1028D000C943490713D40421C9430161022020766A
:1028E000206880698005800F204602D0FFF7CAFF6C
:1028F00004E000F05BF8204600F059F825762068E7
:102900000169C943090716D4C168C943090712D42C
:102910000821C9430161042020762068C06980072E
:10292000204602D0FFF7AEFF04E000F03FF820465B
:1029300000F03DF8257620680169C943C90617D41F
:10294000C168C943C90613D41021C94301610820D5
:1029500020762068C0698005800F204602D0FFF7EE
:1029600091FF04E000F022F8204600F020F82576E0
:1029700020680169C943C90708D1C168C943C907AB
:1029800004D1891E0161204600F012F82068016917
:10299000C943490609D4C168C943490605D4402141
:1029A000C9430161204600F030F870BD70477047A0
:1029B00010B5052010210007FFF73CFB10BD70B5D6
:1029C000044605462034207E01280ED001262676B6
:1029D00002206076284600F0C4F801460020002955
:1029E00005D066762076012070BD022070BD296872
:1029F000CA6840239A43CA602968CA681B029A437E
:102A0000CA6066762076002070BD7047FEE7000041
:102A100010B588B014216846FFF75DF90024012144
:102A2000134805948907069412C004607D218460D0
:102A30000901C46041600838FFF7CCFE002801D0CE
:102A400072B6FEE70094694609480194FFF7B7FFA4
:102A5000002801D072B6FEE7059405A90448069443
:102A6000FFF792FE002801D072B6FEE708B010BD55
:102A700010000020FEE77047704710B5FFF7EEFA30
:102A800010BD000010B592B034216846FFF723F95D
:102A900014210DA8FFF71FF9144801680322D20280
:102AA0009143C21489180160102000900120069003
:102AB0000520002440030890079409946846FFF716
:102AC00031FC002801D072B6FEE70F200D900E9465
:102AD0000F941094002111940DA8FFF719FB002802
:102AE00001D072B6FEE712B010BD000000700040C9
:102AF0007047000010B50248FFF7C5FE10BD00008A
:102B00001000002030B5026801239B070E4C98424C
:102B100001D0A04203D17025AA434D682A439842B0
:102B200001D0A04204D103231B029A43CB681A436D
:102B300080239A430B691A4302608A68C26209685B
:102B400081620121416130BD0008014030B58468D7
:102B5000FF252D021B021343AC430B432343836029
:102B600030BD70B505680024AA6870239A434B688D
:102B70001343DB080A68DB001A43AA604A6813079C
:102B80001B0F31D11211130000F06DF8082F2F2FF9
:102B90002F0C2228052E0B698A68C9680068FFF788
:102BA000D5FF22E00A68052A10D00268136A156A68
:102BB0006D086D0015620568AA690969F026B243BF
:102BC00009011143A961006803620EE0012070BD94
:102BD0000A698968006800F00AF806E00A698968ED
:102BE000006800F015F800E00124204670BD30B503
:102BF000036A046A6408640004628469F025AC43D3
:102C0000120122430A24A3430B438261036230BDB5
:102C100030B5036A1024A34303628469036A0F2555
:102C20002D031203AC432243A024A34309011943FB
:102C30008261016230BDF8B5040C8BB2264682B2C7
:102C40005E430D0C1046370C5843360480190021A2
:102C5000794116466E43370C360480197941264671
:102C60006E438919F8BD30B47446641E2578641C1F
:102C7000AB4200D21D46635D5B00E31830BC1847D1
:102C80008307FF22DB0E9A408907090E994000282E
:102C900008DB830809489B001B1818689043084309
:102CA000186070470007000F0838830804489B002D
:102CB0001B18D86990430843D861704700E400E0CE
:102CC00000ED00E086B0FFF7D1F9FFF7DBFE14213D
:102CD0006846FFF700F81048C16A01242143C16229
:102CE000C06A052520402D070590002210212846A6
:102CF000FFF7A8F910200090112001900020039008
:102D0000029469462846FFF7CBF8FFF781FE034897
:102D1000FFF796FDFEE700000010024010000020C3
:102D2000000000000000000001020304060708097B
:102D3000030406080C101820300000009C15000841
:102D4000000000201000000004030008AC1500087B
:102D500010000020A0060000200300080100000071
:102D60000400000000000000000020000203040531
:102D7000060708090A0B0C0D0E0F101001020304C0
:102D800005060708090A0B0C0D0E0F1000000000C5
:102D9000000000000102030406070809000000000B
:102DA00001020304C42D00080000002014000000EC
:102DB00000010008D82D000814000020EC0A0000D3
:102DC0001C010008000000000000000004000000DA
:082DD0000100000000127A006E
:04000005080000BD32
:00000001FF
