:020000040800F2
:10000000000800201300000811000008110000087B
:10001000FEE700F015F800000922084B41181A60AD
:10002000884206D002789A62DA691206FCD501305D
:10003000F6E7DA695206FCD57047C0460048004032
:10004000FA23F0B5524C1B03A544524CC022636006
:1000500000230527A360504BD20227609A63012238
:100060000820DA624D4D4E4BA022A860EB600223BF
:10007000D2055360D168DB181943D1600C215C3381
:1000800013621368474E8B4303431360301C0339DC
:10009000FFF7C2FF2F600196EB699B060CD4236823
:1000A000DB03F9D5404B414A93601B6883F3088812
:1000B0003F4B1B689847EFE73E4C3F4BE3603F4B9D
:1000C000E3603F4B23613F4B236105232B60EB69CA
:1000D0009B06FCD5314B03A85A6A8223D2B2027028
:1000E000FF2A00D093B2012203339A4207DAE9696A
:1000F0008906FCD52949496A81540132F5E7002275
:10010000111C875C013279409A42FADB002902D047
:10011000019809300FE04378C72B08D1BFF34F8F08
:10012000294A224BDA60BFF34F8FC046FDE7882B88
:1001300003D001980D30042127E082278378C2780C
:100140001B029B18184ADB019A18BF0067601160F8
:10015000A169C907FCD41D495F181D4ED11A891920
:100160000026415866601160A169C907FCD40432B9
:10017000BA42F2D102230370063382784370C37807
:10018000052153400A2253400371FFF745FF9CE7C6
:10019000DCFDFFFF10E000E00010024000480040DE
:1001A00055D00000D40100080002000800ED00E076
:1001B0000402000800200240EFCDAB8905040302D1
:1001C000BFAE9D8C161514130400FA0580020008BA
:0401D00004FEFFF733
:1001D400064701020307007C3A01100111011002D5
:0101E4001208
:0400000508000010DF
:00000001FF
