:020000040800F2
:10000000000800201300000811000008110000087B
:10001000FEE700F015F800000922084B41181A60AD
:10002000884206D002789A62DA691206FCD501305D
:10003000F6E7DA695206FCD57047C0460048004032
:10004000FA23F0B5574C1B03A544574CC0226360FC
:1000500000230527A360554BD20227609A63012233
:10006000DA620823524D8021AB60524B8020EB6056
:10007000A023DB055A68C9010A435A60D9684E4A71
:10008000400511400143D960586A4C494C4E01402B
:10009000C020C004014359621968301C0A40802105
:1000A00089050A431A600921FFF7B6FF2F60019600
:1000B000EB699B060CD42368DB03F9D5414B424A1C
:1000C00093601B6883F30888404B1B689847EFE7F1
:1000D0003F4C404BE360404BE360404B2361404B5F
:1000E000236105232B60EB699B06FCD5304B03A8ED
:1000F0005A6A8223D2B20270FF2A00D093B2012240
:1001000003339A4207DAE9698906FCD52849496A26
:1001100081540132F5E70022111C875C01327940DD
:100120009A42FADB002903D001980421093035E016
:100130004378C72B08D1BFF34F8F2A4A224BDA608E
:10014000BFF34F8FC046FDE7882BCAD18227837843
:10015000C2781B029B181B4ADB019A18BF0067601C
:100160001160A169C907FCD41F495F181F4ED11A3D
:1001700089190026415866601160A169C907FCD43D
:100180000432BA42F2D102230370063382784370FC
:10019000C378052153400A2253400371FFF73CFF07
:1001A0009FE7C046DCFDFFFF10E000E000100240CA
:1001B0000048004055D00000FFFFFFCFFFFFFFF0D9
:1001C000F00100080002000800ED00E00402000851
:1001D00000200240EFCDAB8905040302BFAE9D8C29
:1001E000161514130400FA058002000804FEFFF738
:0D01F000064701020307007C3A01100111CF
:0400000508000010DF
:00000001FF
